{
  "contractName": "VirtueDAO",
  "abi": [
    {
      "constant": true,
      "inputs": [],
      "name": "currentPeriod",
      "outputs": [
        {
          "name": "",
          "type": "uint256"
        }
      ],
      "payable": false,
      "stateMutability": "view",
      "type": "function"
    },
    {
      "constant": true,
      "inputs": [],
      "name": "maxVirtueId",
      "outputs": [
        {
          "name": "",
          "type": "uint256"
        }
      ],
      "payable": false,
      "stateMutability": "view",
      "type": "function"
    },
    {
      "constant": true,
      "inputs": [
        {
          "name": "",
          "type": "uint256"
        },
        {
          "name": "",
          "type": "address"
        }
      ],
      "name": "awardsMadeThisPeriod",
      "outputs": [
        {
          "name": "",
          "type": "uint256"
        }
      ],
      "payable": false,
      "stateMutability": "view",
      "type": "function"
    },
    {
      "constant": true,
      "inputs": [],
      "name": "maxAwardablePerPeriod",
      "outputs": [
        {
          "name": "",
          "type": "uint256"
        }
      ],
      "payable": false,
      "stateMutability": "view",
      "type": "function"
    },
    {
      "constant": true,
      "inputs": [
        {
          "name": "",
          "type": "address"
        },
        {
          "name": "",
          "type": "uint256"
        }
      ],
      "name": "allyVirtues",
      "outputs": [
        {
          "name": "",
          "type": "uint256"
        }
      ],
      "payable": false,
      "stateMutability": "view",
      "type": "function"
    },
    {
      "constant": true,
      "inputs": [
        {
          "name": "_ally",
          "type": "address"
        }
      ],
      "name": "getAwardsMadeThisPeriod",
      "outputs": [
        {
          "name": "",
          "type": "uint256"
        }
      ],
      "payable": false,
      "stateMutability": "view",
      "type": "function"
    },
    {
      "constant": true,
      "inputs": [
        {
          "name": "_ally",
          "type": "address"
        }
      ],
      "name": "getRemainingAwardableThisPeriod",
      "outputs": [
        {
          "name": "",
          "type": "uint256"
        }
      ],
      "payable": false,
      "stateMutability": "view",
      "type": "function"
    },
    {
      "constant": false,
      "inputs": [
        {
          "name": "_ally",
          "type": "address"
        },
        {
          "name": "_virtueId",
          "type": "uint256"
        },
        {
          "name": "amount",
          "type": "uint256"
        }
      ],
      "name": "awardVirtue",
      "outputs": [
        {
          "name": "",
          "type": "uint256"
        }
      ],
      "payable": false,
      "stateMutability": "nonpayable",
      "type": "function"
    },
    {
      "constant": true,
      "inputs": [],
      "name": "virtueCount",
      "outputs": [
        {
          "name": "",
          "type": "uint256"
        }
      ],
      "payable": false,
      "stateMutability": "view",
      "type": "function"
    },
    {
      "constant": true,
      "inputs": [
        {
          "name": "_ally",
          "type": "address"
        },
        {
          "name": "_virtueId",
          "type": "uint256"
        }
      ],
      "name": "getVirtue",
      "outputs": [
        {
          "name": "",
          "type": "uint256"
        }
      ],
      "payable": false,
      "stateMutability": "view",
      "type": "function"
    }
  ],
  "bytecode": "0x608060405260056002556064600355600060045534801561001f57600080fd5b506105258061002f6000396000f3fe608060405234801561001057600080fd5b506004361061009e5760003560e01c80638c30b477116100665780638c30b477146101b75780639d41012714610219578063ad9258ac1461027b578063cd71e1d414610299578063e4e2aaf9146103055761009e565b806306040618146100a357806334fcbef6146100c157806354c087a0146100df57806355a0aa2a1461014157806389d1e1f614610199575b600080fd5b6100ab61035d565b6040518082815260200191505060405180910390f35b6100c9610363565b6040518082815260200191505060405180910390f35b61012b600480360360408110156100f557600080fd5b8101908080359060200190929190803573ffffffffffffffffffffffffffffffffffffffff169060200190929190505050610369565b6040518082815260200191505060405180910390f35b6101836004803603602081101561015757600080fd5b81019080803573ffffffffffffffffffffffffffffffffffffffff16906020019092919050505061038e565b6040518082815260200191505060405180910390f35b6101a16103a4565b6040518082815260200191505060405180910390f35b610203600480360360408110156101cd57600080fd5b81019080803573ffffffffffffffffffffffffffffffffffffffff169060200190929190803590602001909291905050506103aa565b6040518082815260200191505060405180910390f35b6102656004803603604081101561022f57600080fd5b81019080803573ffffffffffffffffffffffffffffffffffffffff169060200190929190803590602001909291905050506103cf565b6040518082815260200191505060405180910390f35b610283610429565b6040518082815260200191505060405180910390f35b6102ef600480360360608110156102af57600080fd5b81019080803573ffffffffffffffffffffffffffffffffffffffff1690602001909291908035906020019092919080359060200190929190505050610436565b6040518082815260200191505060405180910390f35b6103476004803603602081101561031b57600080fd5b81019080803573ffffffffffffffffffffffffffffffffffffffff16906020019092919050505061049d565b6040518082815260200191505060405180910390f35b60045481565b60025481565b6001602052816000526040600020602052806000526040600020600091509150505481565b60006103998261049d565b600354039050919050565b60035481565b6000602052816000526040600020602052806000526040600020600091509150505481565b60008060008473ffffffffffffffffffffffffffffffffffffffff1673ffffffffffffffffffffffffffffffffffffffff168152602001908152602001600020600083815260200190815260200160002054905092915050565b6000600160025401905090565b6000816000808673ffffffffffffffffffffffffffffffffffffffff1673ffffffffffffffffffffffffffffffffffffffff168152602001908152602001600020600085815260200190815260200160002060008282540192505081905590509392505050565b600060016000600454815260200190815260200160002060008373ffffffffffffffffffffffffffffffffffffffff1673ffffffffffffffffffffffffffffffffffffffff16815260200190815260200160002054905091905056fea165627a7a723058209a9ec1070e705b28d3f3b2fe079a80c5b6382ca03ee86fb65f18aec4d4e0ca5c0029",
  "source": "pragma solidity ^0.5.8;\n\ncontract VirtueDAO {\n    // TODO: add SafeMath back after sketch phase\n    // using SafeMath for uint;\n\n    mapping(address => mapping(uint => uint)) public allyVirtues; // allyAddress => virtueId => balance\n    mapping(uint => mapping(address => uint)) public awardsMadeThisPeriod; // periodId => user => awardsMadeThisPeriod\n    \n    // token awards\n    uint public maxVirtueId = 5;\n    uint public maxAwardablePerPeriod = 100;\n    uint public currentPeriod = 0;\n    \n    function getAwardsMadeThisPeriod(address _ally) public view returns (uint) {\n        return awardsMadeThisPeriod[currentPeriod][_ally];\n    }\n\n    function getRemainingAwardableThisPeriod(address _ally) public view returns (uint) {\n        return maxAwardablePerPeriod - getAwardsMadeThisPeriod(_ally);\n    }\n    \n    function awardVirtue(address _ally, uint _virtueId, uint amount) public returns (uint) {\n        return allyVirtues[_ally][_virtueId] += amount;\n    }\n    \n    function virtueCount() public view returns (uint) {\n        return maxVirtueId + 1;\n    }\n    \n    function getVirtue(address _ally, uint _virtueId) public view returns (uint) {\n        return allyVirtues[_ally][_virtueId];\n    }\n\n    // TODO: virtue CAP / max dividend \n    // TODO: these functions\n    \n    // function nextPeriod()\n\n    // function decayVirtue()\n\n    // // Virtue -> rDAI: transferFrom(daoAddress, daoAllyAddress, amount)\n    // // Ally1 -> DAI: transfer(recipientAddress, amount) \\n// DAI is ally'\n    // function claimFellowship() public {\n    //     _calculateFellowship(msg.sender);\n    // }\n\n    // // based on virtue tokens received, max values,\n    // // decay of virtue since it was awarded \n    // // endowment available during this period\n    // function _calculateFellowship(address _ally) private {\n    //     // stub\n    // }\n\n    // returns total funds available from patrons \n    // function endowmentBalance() public returns(uint) {\n    //     // TODO: call external DAI address for balance\n    //     return 0;\n    // }\n}",
  "sourcePath": "/Users/noahthorp/dev_github/virtue-dao/contracts/VirtueDAO.sol",
  "compiler": {
    "name": "solc",
    "version": "0.5.8+commit.23d335f2.Emscripten.clang"
  },
  "schemaVersion": "3.0.12",
  "updatedAt": "2019-08-24T20:14:20.043Z",
  "devdoc": {
    "methods": {}
  },
  "userdoc": {
    "methods": {}
  }
}