{
  "contractName": "VirtueCoin",
  "abi": [
    {
      "constant": false,
      "inputs": [
        {
          "name": "_member",
          "type": "address"
        },
        {
          "name": "_virtueType",
          "type": "bytes32"
        }
      ],
      "name": "checkVirtue",
      "outputs": [
        {
          "name": "",
          "type": "uint256"
        }
      ],
      "payable": false,
      "stateMutability": "nonpayable",
      "type": "function"
    },
    {
      "constant": false,
      "inputs": [
        {
          "name": "_member",
          "type": "address"
        },
        {
          "name": "_virtueType",
          "type": "bytes32"
        }
      ],
      "name": "recognizeVirtueBalance",
      "outputs": [],
      "payable": false,
      "stateMutability": "nonpayable",
      "type": "function"
    },
    {
      "constant": false,
      "inputs": [
        {
          "name": "_member",
          "type": "address"
        },
        {
          "name": "virtueType",
          "type": "bytes32"
        },
        {
          "name": "amount",
          "type": "uint256"
        }
      ],
      "name": "recognizeVirtue",
      "outputs": [],
      "payable": false,
      "stateMutability": "nonpayable",
      "type": "function"
    },
    {
      "constant": false,
      "inputs": [],
      "name": "endowmentBalance",
      "outputs": [],
      "payable": false,
      "stateMutability": "nonpayable",
      "type": "function"
    },
    {
      "constant": false,
      "inputs": [],
      "name": "claimFellowship",
      "outputs": [],
      "payable": false,
      "stateMutability": "nonpayable",
      "type": "function"
    }
  ],
  "bytecode": "0x608060405234801561001057600080fd5b506101c8806100206000396000f3fe608060405234801561001057600080fd5b50600436106100575760003560e01c8063214d63391461005c5780632ed2761a1461006657806343e2bf85146100b457806349a525541461011657806356872aad14610120575b600080fd5b610064610178565b005b6100b26004803603604081101561007c57600080fd5b81019080803573ffffffffffffffffffffffffffffffffffffffff1690602001909291908035906020019092919050505061017a565b005b610100600480360360408110156100ca57600080fd5b81019080803573ffffffffffffffffffffffffffffffffffffffff1690602001909291908035906020019092919050505061017e565b6040518082815260200191505060405180910390f35b61011e610189565b005b6101766004803603606081101561013657600080fd5b81019080803573ffffffffffffffffffffffffffffffffffffffff1690602001909291908035906020019092919080359060200190929190505050610194565b005b565b5050565b600080905092915050565b61019233610199565b565b505050565b5056fea165627a7a72305820f15f9bb512fd2410fafbafb261ede6c38ba6f61b3817e6a18e1cfc576560dac20029",
  "source": "pragma solidity ^0.5.8;\n\ncontract VirtueCoin {\n    // TODO: add SafeMath back after sketch phase\n    // using SafeMath for uint;\n\n    mapping(bytes32 => mapping(address => uint)) virtueBalances;\n    bytes32[] virtues; // constructor with initial members and virtues\n\n    // Virtue -> Virtue: counstructor(foundingMembers, virtues) \\n //initial members get virtue tokens of specific types to award\n\n    function checkVirtue(address _member, bytes32 _virtueType) public returns (uint) {\n        //stub\n        return 0;\n    }\n    function recognizeVirtueBalance(address _member, bytes32 _virtueType) public {\n        // stub\n    }\n    function recognizeVirtue(address _member, bytes32 virtueType, uint amount) public {\n        // stub\n    }\n    \n    // returns total funds available from patrons \n    function endowmentBalance() public {\n        // stub\n    }\n\n    // Virtue -> rDAI: transferFrom(daoAddress, daoMemberAddress, amount)\n    // Member1 -> DAI: transfer(recipientAddress, amount) \\n// DAI is member'\n    function claimFellowship() public {\n        _calculateFellowship(msg.sender);\n    }\n\n    // based on virtue tokens received, max values,\n    // decay of virtue since it was awarded \n    // endowment available during this period\n    function _calculateFellowship(address _member) private {\n        // stub\n    }\n}",
  "sourcePath": "/Users/noahthorp/dev_github/virtue-dao/contracts/VirtueCoin.sol",
  "compiler": {
    "name": "solc",
    "version": "0.5.8+commit.23d335f2.Emscripten.clang"
  },
  "schemaVersion": "3.0.12",
  "updatedAt": "2019-08-24T00:12:41.946Z",
  "devdoc": {
    "methods": {}
  },
  "userdoc": {
    "methods": {}
  }
}